{"abi":[{"type":"function","name":"addEntry","inputs":[{"name":"_agentAddress","type":"string","internalType":"string"},{"name":"_content","type":"string","internalType":"string"},{"name":"_signature","type":"string","internalType":"string"}],"outputs":[],"stateMutability":"nonpayable"},{"type":"event","name":"EntryAdded","inputs":[{"name":"timestamp","type":"uint256","indexed":true,"internalType":"uint256"},{"name":"agentAddress","type":"string","indexed":false,"internalType":"string"},{"name":"content","type":"string","indexed":false,"internalType":"string"},{"name":"signature","type":"string","indexed":false,"internalType":"string"}],"anonymous":false}],"bytecode":{"object":"0x6080604052348015600e575f5ffd5b5061035b8061001c5f395ff3fe608060405234801561000f575f5ffd5b5060043610610029575f3560e01c8063e7a9f27f1461002d575b5f5ffd5b610047600480360381019061004291906101d7565b610049565b005b427fd9d21bd075cab5223bac736d1eccc8172425a4eac060226ec3a6dc3478d5abb684848460405161007d939291906102db565b60405180910390a2505050565b5f604051905090565b5f5ffd5b5f5ffd5b5f5ffd5b5f5ffd5b5f601f19601f8301169050919050565b7f4e487b71000000000000000000000000000000000000000000000000000000005f52604160045260245ffd5b6100e9826100a3565b810181811067ffffffffffffffff82111715610108576101076100b3565b5b80604052505050565b5f61011a61008a565b905061012682826100e0565b919050565b5f67ffffffffffffffff821115610145576101446100b3565b5b61014e826100a3565b9050602081019050919050565b828183375f83830152505050565b5f61017b6101768461012b565b610111565b9050828152602081018484840111156101975761019661009f565b5b6101a284828561015b565b509392505050565b5f82601f8301126101be576101bd61009b565b5b81356101ce848260208601610169565b91505092915050565b5f5f5f606084860312156101ee576101ed610093565b5b5f84013567ffffffffffffffff81111561020b5761020a610097565b5b610217868287016101aa565b935050602084013567ffffffffffffffff81111561023857610237610097565b5b610244868287016101aa565b925050604084013567ffffffffffffffff81111561026557610264610097565b5b610271868287016101aa565b9150509250925092565b5f81519050919050565b5f82825260208201905092915050565b8281835e5f83830152505050565b5f6102ad8261027b565b6102b78185610285565b93506102c7818560208601610295565b6102d0816100a3565b840191505092915050565b5f6060820190508181035f8301526102f381866102a3565b9050818103602083015261030781856102a3565b9050818103604083015261031b81846102a3565b905094935050505056fea2646970667358221220cf14f34f16e16a8f73b896d86e33b6d8c5ba07e7658403f017f4e09dda7b2c2264736f6c634300081e0033","linkReferences":{}},"methodIdentifiers":{"addEntry(string,string,string)":"e7a9f27f"},"id":0}